:0A0000000C9436180C9400000C94C8
:10000A0000000C9400000C9400000C9400000C9466
:10001A0000000C9400000C9400000C94C9210C946C
:10002A00E9210C9400000C9400000C9400000C943C
:10003A0000000C9400000C9400000C9400000C9436
:10004A0000000C9400000C94971F0C9400000C9470
:10005A0000000C9400000C9400000C948E1F0C9469
:10006A0000000C9400000C9400000C9400000C9406
:10007A0000000C9400000C9400000C9400000C94F6
:10008A0000000C947F220C943D1B0C9400000C94ED
:10009A0000000C9440230C9400000C9400000C9473
:1000AA0000000C9400000C9400000C9400000C94C6
:1000BA0000000C9400000C9400000C9400000C94B6
:1000CA0000000C9400000C9400000C9400000C94A6
:1000DA0000000C9400000C940000FFFF7E7E3C3C64
:1000EA0018181000000000000000005F0000000760
:1000FA00000700147F147F14242A7F2A122313086E
:10010A00646236495522500005030000001C224152
:10011A00000041221C0014083E081408083E080882
:10012A00005030000008080808080060600000203D
:10013A0010080402000000000000005F0000000731
:10014A00000700147F147F14242A7F2A122313081D
:10015A00646236495522500005030000001C224102
:10016A00000041221C0014083E081408083E080832
:10017A0000503000000808080808006060000020ED
:10018A0010080402000000000000005F00000007E1
:10019A00000700147F147F14242A7F2A12231308CD
:1001AA00646236495522500005030000001C2241B2
:1001BA00000041221C0014083E081408083E0808E2
:1001CA00005030000008080808080060600000209D
:1001DA00100804023E5149453E00427F40004261F8
:1001EA005149462141454B311814127F1027454584
:1001FA0045393C4A4949300171090503364949499B
:10020A0036064949291E00363600000056360000D7
:10021A000814224100141414141400412214080270
:10022A0001510906324979413E7E1111117E7F49F9
:10023A004949363E414141227F4141221C7F494979
:10024A0049417F090909013E4149497A7F0808085D
:10025A007F00417F41002040413F017F0814224135
:10026A007F404040407F020C027F7F0408107F3E9F
:10027A004141413E7F090909063E4151215E7F09FC
:10028A00192946464949493101017F01013F404048
:10029A00403F1F2040201F3F4038403F631408144E
:1002AA006307087008076151494543007F414100CF
:1002BA0002040810200041417F00040201020440A8
:1002CA0040404040000102040020545454787F48C2
:1002DA004444383844444420384444487F385454C9
:1002EA005418087E0901020C5252523E7F08040437
:1002FA007800447D40002040443D007F102844009F
:10030A0000417F40007C041804787C080404783893
:10031A00444444387C14141408081414187C7C08C7
:10032A000404080854545420043F4440203C4040EC
:10033A00207C1C2040201C3C4030403C4428102893
:10034A00440C5050503C4464544C4400083641001C
:10035A0000007F00000041360800100808100878E5
:10036A0046414678000000000000005F00000007D8
:10037A00000700147F147F14242A7F2A12231308EB
:10038A00646236495522500005030000001C2241D0
:10039A00000041221C0014083E081408083E080800
:1003AA0000503000000808080808006060000020BB
:1003BA0010080402000000000000005F00000007AF
:1003CA00000700147F147F14242A7F2A122313089B
:1003DA00646236495522500005030000001C224180
:1003EA00000041221C0014083E081408083E0808B0
:1003FA00005030000008080808080060600000206B
:10040A0010080402000000000000005F000000075E
:10041A00000700147F147F14242A7F2A122313084A
:10042A00646236495522500005030000001C22412F
:10043A00000041221C0014083E081408083E08085F
:10044A00005030000008080808080060600000201A
:10045A0010080402000609090600427F40004261B2
:10046A005149462141454B311814127F1027454501
:10047A0045393C4A49493001710905033649494918
:10048A0036064949291E0036360000005636000055
:10049A0008142241001414141414004122140802EE
:1004AA00015109067E1111117E7F494949317F495F
:1004BA004949367F01010103603E21217F7F494975
:1004CA00494177087F087722414949367F10080455
:1004DA007F7F1009047F7F08142241403E01017F7B
:1004EA007F020C027F7F0808087F3E4141413E7F20
:1004FA000101017F7F090909063E414141220101AB
:10050A007F0101274848483F1E217F211E631408A6
:10051A0014633F20203F60070808087F7F407F4020
:10052A007F3F203F207F017F4848307F4830007F4F
:10053A00007F484830224149493E7F083E413E46B5
:10054A002919097F20545454783C4A4A4A307C5429
:10055A005428007C04040404603824247C3854544D
:10056A0054186C107C106C00445454287C201008D9
:10057A007C7C2112097C7C10284400403804047CCD
:10058A007C0810087C7C1010107C38444444387C69
:10059A000404047C7C1414140838444444000404FD
:1005AA007C04040C5050503C08147C140844281055
:1005BA0028443C20203C600C1010107C7C407C407D
:1005CA007C3C203C207C047C5050207C5020007CC9
:1005DA00007C50502028445454387C103844384801
:1005EA005434147C000000C0E0F0F0F0F0F0F0F0B9
:1005FA00F0F0F0F0F0F0F0E0C0000000000000FFC2
:10060A00FFFFFF01000000000000000001FFFFFFE4
:10061A00FF000000000000FFFFFFFF800000000055
:10062A000000000080FFFFFFFF0000000000000341
:10063A00070F0F0F0F0F0F0F0F0F0F0F0F0F0F07D0
:10064A00030000000000000000000000000000009D
:10065A000000E0F0F0E000000000000000000000F0
:10066A0000000000000000000000FFFFFFFF000084
:10067A000000000000000000000000000000000070
:10068A000000FFFFFFFF0000000000000000000064
:10069A00000000000000000000000307070300003C
:1006AA0000000000000000E0F0F0F0F0F0F0F0F0E0
:1006BA00F0F0F0F0F0F0F0E000000000000000813F
:1006CA00C1C0C0C0C0C0C0C0C0C0C0E1FFFFFFFF02
:1006DA0000000000000000FFFFFFFF870303030381
:1006EA0003030303030383810000000000000007E3
:1006FA000F0F0F0F0F0F0F0F0F0F0F0F0F0F0F0708
:10070A0000000000000000E0F0F0F0F0F0F0F0F07F
:10071A00F0F0F0F0F0F0F0E00000000000000081DE
:10072A00C1C0C0C0C0C0C0C0C0C0C0E1FFFFFF7F21
:10073A000000000000000081830303030303030396
:10074A0003030387FFFFFFFE00000000000000070D
:10075A000F0F0F0F0F0F0F0F0F0F0F0F0F0F0F07A7
:10076A0000000000000000E0F0F0F030000000009F
:10077A0000000030F0F0F0E000000000000000FF90
:10078A00FFFFFFE0C0C0C0C0C0C0C0E0FFFFFFFF66
:10079A000000000000000001030303030303030336
:1007AA0003030307FFFFFFFF000000000000000033
:1007BA0000000000000000000000000C0F0F0F07EF
:1007CA0000000000000000E0F0F0F0F0F0F0F0F0BF
:1007DA00F0F0F0F0F0F0F0E000000000000000FFA0
:1007EA00FFFFFFE1C0C0C0C0C0C0C0C0C0C0C1815F
:1007FA0000000000000000818303030303030303D6
:10080A0003030387FFFFFFFF00000000000000074B
:10081A000F0F0F0F0F0F0F0F0F0F0F0F0F0F0F07E6
:10082A0000000000000000E0F0F0F0F0F0F0F0F05E
:10083A00F0F0F0F0F0F0F0E000000000000000FF3F
:10084A00FFFFFFE1C0C0C0C0C0C0C0C0C0C0C181FE
:10085A0000000000000000FFFFFFFF8703030303FF
:10086A0003030387FFFFFFFF0000000000000007EB
:10087A000F0F0F0F0F0F0F0F0F0F0F0F0F0F0F0786
:10088A0000000000000000E0F0F0F0F0F0F0F0F0FE
:10089A00F0F0F0F0F0F0F0E00000000000000001DD
:1008AA00010000000000000000000001FFFFFFFF40
:1008BA00000000000000000000000000000000002E
:1008CA0000000000FFFFFFFF000000000000000022
:1008DA0000000000000000000000000C0F0F0F07CE
:1008EA0000000000000000E0F0F0F0F0F0F0F0F09E
:1008FA00F0F0F0F0F0F0F0E0000000000000007FFF
:10090A00FFFFFFE1C0C0C0C0C0C0C0E1FFFFFF3FA2
:10091A0000000000000000FEFFFFFF87030303033F
:10092A0003030387FFFFFFFE00000000000000072B
:10093A000F0F0F0F0F0F0F0F0F0F0F0F0F0F0F07C5
:10094A0000000000000000E0F0F0F0F0F0F0F0F03D
:10095A00F0F0F0F0F0F0F0E000000000000000FF1E
:10096A00FFFFFFE1C0C0C0C0C0C0C0E1FFFFFFFF82
:10097A000000000000000001030303030303030354
:10098A0003030307FFFFFFFF000000000000000051
:10099A0000000000000000000000000C0F0F0F070D
:1009AA00000000000000000000000000000000003D
:1009BA00000000000000000000000000000000002D
:1009CA0000000000003C7E7E7E7E3C0000000000AD
:1009DA0000000000000000000000000000F0F8F82D
:1009EA00F8F8F0000000000000000000000000001D
:1009FA0000000000000001010101000000000000E9
:100A0A0000000000000000000000000000000000DC
:100A1A0000000000000000000000000000000000CC
:100A2A0000000000000000000000000000000000BC
:100A3A0000000000000000000000000000C0C0C06C
:100A4A00C0C0C0000000000000000000000000005C
:100A5A0000000000000F0F0F0F0F0F000000000032
:100A6A00000000000000000000000000000000007C
:100A7A00000000000000000000000000000000006C
:100A8A00000000000000000000000000000000005C
:100A9A00000000000000000000000000000000004C
:100AAA00000000000000000000000000000000003C
:100ABA00000000000000000000000000000000002C
:100ACA00000000000000000000000000001F1111DB
:100ADA00111F0000000000000000000000000000DC
:100AEA0000000000000000000000000000000000FC
:100AFA0000000000000000000000000000000000EC
:100B0A0000000000000000000000000000000000DB
:100B1A0000000000000000000000000000000000CB
:100B2A0000000000000000000000000000000000BB
:100B3A0000000000000000000000000000000000AB
:100B4A00000000000000000000000000000000009B
:100B5A00000000000000000000000000000000008B
:100B6A00000000000000000000000000000000007B
:100B7A00000000000000000000000000000000006B
:100B8A00000000000000000000000000000000005B
:100B9A00000000000000000000000000000000004B
:100BAA00000000000000000000000000000000003B
:100BBA00000000000080808080808000000000002B
:100BCA00000000000000000000000000000000001B
:100BDA00000000000000000000000000000000000B
:100BEA0000000000000000000000000000000000FB
:100BFA0000000000000000000000000000000000EB
:100C0A00000000000000000202060E0E1E3C7CF8E6
:100C1A00F0E0E0C0800000000000000000000000DA
:100C2A0000000000000000C0C0E0F0F8F8FCFEFE82
:100C3A00FEFFFFFFFFFFFFFFFFFFFFFFFFFFFFFEBC
:100C4A00FEFEFCFCFCF8F0F0E0E0C0C0C080808052
:100C5A008080000000000000000060F0F0F0F0F07A
:100C6A00F0F0E0E0E0E0E0E0E0F0F0F0F0F0F0E0FA
:100C7A00C08000000000000000000000000000002A
:100C8A000000000000000000000000000000000159
:100C9A0003070F0F1F3F7E7EFCFCF8F8F0F0E0E040
:100CAA00E0E0F0F8FCFEFFFFFFFFFFFFFFFFFFFFA2
:100CBA00FFFFFFFFFFFFFFFFFFFFFFFFFFFFFFFF3A
:100CCA00FFFFFFFFFFFFFFFFFFFFFFFFFFFFFFFF2A
:100CDA00FFFFFFFFFFFEFEFCFCFCF8F9FFFFFFFF32
:100CEA00FFFFFFFFFFFFFFFFFFFFFFFFFFFFFFFF0A
:100CFA00FFFFFFFFFEFCF8F8F8F0F000000000002C
:100D0A0000000000000000000000000000000000D9
:100D1A0000000000000000000000010103030707B3
:100D2A00070303030101010103071F3F7FFFFFFFC1
:100D3A00FFFFFFFFFFFFFFFFFFFFFFFFFFFFFFFFB9
:100D4A00FFFFFFFFFFFFFFFFFFFFFFFFFFFFFFFFA9
:100D5A00FFFFFFFFFFFFFFFFFFFFFFFFFFFFFFFF99
:100D6A00FFFF7F7F3F1F1F0F0F0F0F0F0F0F0F0F79
:100D7A000F0F0F0F0F0F0F070301000000000000F5
:100D8A000000000000000000000000000000000059
:100D9A000000000000000000000000000000000049
:100DAA000000000000001FFFFFFEFEBE3E3F3F3F67
:100DBA003F3F7FFFFFFFFFFFBF1F1F1F1F1F0F03C5
:100DCA000303030707FFFFFFFFFFFFFFFFFFFFFF0D
:100DDA00FFFFFFFF7F7F3F3F1F1F0F0F0703030127
:100DEA0000000000000000000000000000000000F9
:100DFA0000000000000000000000000000000000E9
:100E0A0000000000000000000000000000000000D8
:100E1A0000000000000000000000000000000000C8
:100E2A0000000000000000001FFFFFFFF8C00000E4
:100E3A000000000003070F3FFFFFFEFCF8E0000080
:100E4A0000000000F0FFFFFFFFFFFFFFFF7F3F1FD3
:100E5A000F07010000000000000000000000000071
:100E6A000000000000000000000000000000000078
:100E7A000000000000000000000000000000000068
:100E8A000000000000000000000000000000000058
:100E9A000000000000000000000000000000000048
:100EAA000000000000000000073F3F1F1F0F000066
:100EBA000000000000000000070FE7F7F3F1F0F070
:100ECA00F0F8F8FEFF7F3F1F0F030101000000004A
:100EDA000000000000000000000000000000000008
:100EEA0000000000000000000000000000000000F8
:100EFA0000000000000000000000000000000000E8
:100F0A0000000000000000000000000000000000D7
:100F1A0000000000000000000000000000000000C7
:100F2A0000000000000000000000000000000000B7
:100F3A0000000000000000000000000103030F7F12
:100F4A00FFFFFFFFF8F0F0000000000000000000C3
:100F5A000000000000000000000000000000000087
:100F6A000000000000000000000000000000000077
:100F7A000000000000000000000000000000000067
:100F8A000000000000000000000000000000000057
:100F9A000000000000000000000000000000000047
:100FAA000000000000000000000000000000000037
:100FBA000000000000000000000000000000000027
:100FCA000000000000000000000000000000000017
:100FDA000000000000000000000000000000000007
:100FEA0000000000000000000000000000000000F7
:100FFA0000000000000000000000000000000000E7
:10100A0000000000000000000000000000000000D6
:10101A0000000000000000000000000000000000C6
:10102A00000000000000000080C0C0E0F0F0F0F80E
:10103A00F8F8F8F8F8F8F8F8F0F0F0F0F0E0C0C0D6
:10104A008080000000000000000000000000000096
:10105A000000000000000000000000000000000086
:10106A000000808080C0C0E0E0F0E0E0C0C0808086
:10107A000000000000000000000000000000000066
:10108A000000000000000000000000000000000056
:10109A000000000000000000000000000000000046
:1010AA0000000080E0F8FCFFFFFFFFFFFFFFFFFFEB
:1010BA00FFFFFFFFFFFFFFFFFFFFFFFFFFFFFFFF36
:1010CA00FFFFFFFEFEFCFCF8F8F8F0F8F8F8F8F875
:1010DA00F8F8F0F0F0F0E0FCFCFCFCFCFCFEFEFF93
:1010EA00FFFFFFFFFFFFFFFFFFFFFFFFFFFFFFFF06
:1010FA00FFFFFEFEFEFEFEFE7E1E00000000000058
:10110A0000000000000000000000000000000000D5
:10111A00000000000000008080C0C0E0E0F0F0F8AD
:10112A00FCFEFF7F3F7F7FFFFFFFFFFFFFFFFFFF09
:10113A00FFFFFFFFFFFFFFFFFFFFFFFFFFFFFFFFB5
:10114A00FFFFFFFFFFFFFFFFFFFFFFFFFFFFFFFFA5
:10115A00FFFFFFFFFFFFFFFFFFFFFFFFFFFFFFFF95
:10116A00FFFF7F3F1F0F0F0F0F0F0F0F0F0F0F0FF5
:10117A000F0707070707030100000000000000002F
:10118A000000000000000000000202060606060633
:10119A0007070F0F0F0F0F0F0F07070707030303A9
:1011AA0001000000000000C0E1F3F7FFFFFFFFFFAE
:1011BA00FFFFFF3F3F3FFFFFFFFFFFFFFF0F1F3F05
:1011CA003F7FFFFFFFFFFFFFFFFFFFFFFFFFFFFF65
:1011DA00FFFFFFFFFFFFFFFFFF7F3F1F0F07030315
:1011EA0001000000000000000000000000000000F4
:1011FA0000000000000000000000000000000000E5
:10120A0000000000000000000000000000000000D4
:10121A0000000000000000000000000000000000C4
:10122A00000000000000000101030707070F0F1F5D
:10123A001F1F3F3F7E7E7CFFFFFFFFFFFFC0C0C036
:10124A00E0F8FFFFFF7F3F1F0F070F1F3FFFFFFF62
:10125A00FFFFFFFBE3810101000000000000000026
:10126A000000000000000000000000000000000074
:10127A000000000000000000000000000000000064
:10128A000000000000000000000000000000000054
:10129A000000000000000000000000000000000044
:1012AA000000000000000000000000000000000034
:1012BA00F0F0F0F0F0F0F0F0F0F9F9FBFF7F7F3F8B
:1012CA003F3F3F3F7E7C7CFCFCF8F0E08080C1C35E
:1012DA00E7FFFFFFFFFF38000000000000000000EA
:1012EA0000000000000000000000000000000000F4
:1012FA0000000000000000000000000000000000E4
:10130A0000000000000000000000000000000000D3
:10131A0000000000000000000000000000000000C3
:10132A0000000000000000000000000000000000B3
:10133A00000001010101010101000000000000009C
:10134A00000000000000000007070F0F0F0F0F0F2B
:10135A000F0707070301000000000000000000005B
:10136A000000000000000000000000000000000073
:10137A000000000000000000000000000000000063
:10138A000000000000000000000000000000000053
:10139A000000000000000000000000000000000043
:1013AA000000000000000000000000000000000033
:1013BA000000000000000000000000000000000023
:1013CA000000000000000000000000000000000013
:1013DA000000000000000000000000000000000003
:1013EA000000000000000000000000808080000073
:1013FA0000000000000000000000000000000000E3
:10140A0000000000000000000000000000000000D2
:10141A0000000000000000000000000000000000C2
:10142A0000000000000000000000000000000000B2
:10143A00000080808080C0C0C0C0C0C0C0C0C08062
:10144A008080800000000000000000000000000012
:10145A00000000000000000000000000000000F092
:10146A00F8FCFCFCFCFCFEFEFEFFFFFFFFFFFFFF9B
:10147A00FEFCFCF8F0F0F0F0F0F0F0F030000000C4
:10148A000000000000000000000000000000000052
:10149A000000000000000000000000000000000042
:1014AA000000000000000000C0E0F0F8FCFCFEFEB6
:1014BA00FFFFFFFFFFFFFFFFFFFFFFFFFFFFFFFF32
:1014CA00FFFFFFFFFFFFFFFFFFFFFFFFFFFFFFFF22
:1014DA00FFFFFFFFFFFFFFFFFFFFFFFFFFFFFFFF12
:1014EA00FFFFFFFFFFFFFFFFFF7F7F7F3F3F3F3F82
:1014FA003F3F3F3F3F3F3F1F0F07030000000000F1
:10150A0000000000000000000000000000000000D1
:10151A0000000000000000000000000000000000C1
:10152A00000080C0E0F8FCFFFFFFFFFFFFFFFFFFA6
:10153A00FFFFFFFFFFFFFFFFFFFFFFFFFFFFFFFFB1
:10154A00FFFFFFFFFFFFFFFFFFFFFFFFFFFFFFFFA1
:10155A00FFFFFFFFFFFFFFFFFFFFFFFFFFFFFF7F11
:10156A007F3F3F1F0F07030100000000000000003B
:10157A000000000000000000000000000000000061
:10158A000000000000040408181830307070F0F0F1
:10159A00F0F0F0F0F0F0F0F0F0F0F0F0F8F87C7E17
:1015AA003E3F1F0F0F0F1F3F3F7F7FFFFFFFFFFFD2
:1015BA00FFFFFFFFFFFFFFFFFFFFFFFFFF01030327
:1015CA0007070F0F1F1F3F3F7F7F7F7FFFFFFFFF31
:1015DA00FFFFFFFFFF3F3F3F7F7F7FFFFFFFFFFED2
:1015EA00FEFCF8F8F0F0E0E0C0C080000000000067
:1015FA0000000000000000000000000000000000E1
:10160A0000000000000000000000000000000000D0
:10161A0000010101010101010101010100000000B5
:10162A0000000000000000000000000087FFFFFF2C
:10163A00FFFFFF3F1F07073FFFFFFFFFFFF0C080CD
:10164A0080000000000080C0C0C0808083078FFF38
:10165A00FFFFFFFFFF000000000000000000010183
:10166A008183C3C3E7EFFFFFFFFFFF3F00000000D6
:10167A000000000000000000000000000000000060
:10168A000000000000000000000000000000000050
:10169A000000000000000000000000000000000040
:1016AA0000000000000000000078FCFEFFFFFFCFF2
:1016BA00830100000000000000010103070F0F1F53
:1016CA003F7FFEFCFCFCF9FBF7F7E7CF0F0F0F0F8C
:1016DA000F070703000000000000000000000207D7
:1016EA00070F0F0F0F070703030100000000000098
:1016FA0000000000000000000000000000000000E0
:10170A0000000000000000000000000000000000CF
:10171A0000000000000000000000000000000000BF
:10172A0000000000000000000000000103070F1F76
:10173A001F3E7EFCFCFCFCFCF87860000000000008
:10174A000000000001010101010101010000000087
:10175A00000000000000000000000000000000007F
:10176A00000000000000000000000000000000006F
:10177A00000000000000000000000000000000005F
:10178A00000000000000000000000000000000004F
:10179A00000000000000000000000000000000003F
:1017AA00000000000000000000000000000000002F
:1017BA00000000000000000000000000000000001F
:1017CA00000000000000000000000000000000000F
:1017DA0000000000000000000000000000008080FF
:1017EA00808080C0C0C0C0C0C0E0E0E0E0E0E0E0CF
:1017FA00C08080000000000000000000000000001F
:10180A0000000000000000000000000000000000CE
:10181A0000000000000000000000000000000000BE
:10182A0000000000000000000000000000000000AE
:10183A00000000000000000000000000000000009E
:10184A00000000000000000000000000808080C04E
:10185A00C0C0C0C0C0C0C0C0C0C0C8CCCEEFEFFFBF
:10186A00FFFFFFFFFFFFFFFFFFFFFFFFFFFFFFFF7E
:10187A00FFFFFFFFFEFCFCFCFCFCFCFCFC1C000068
:10188A00000000000000000000000000000000004E
:10189A00000000000000000000000000000000003E
:1018AA000000808080800080C0E0F0F0F8F8FCFC46
:1018BA00FCFCFCFEFEFEFEFEFEFEFCFCFCFCFCFC50
:1018CA00FCFCFCFCFCFCFEFEFEFFFFFFFFFFFFFF33
:1018DA00FFFFFFFFFFFFFFFFFFFFFFFFFFFFFFFF0E
:1018EA00FFFFFFFFFFFFFF7F3F3F1F0F0F0F0F1F7E
:1018FA001F1F1F1F1F0F0F0F0F07070300000000F6
:10190A0000000000000000000000000000000000CD
:10191A0000000080C0E0E0F0F8FC7C3E3E1F1F0F94
:10192A000F0F0F0F0FFFFFFFFFFFFFFFFFFFFFFF6D
:10193A00FFFFFFFFFFFFFFFFFFFFFFFFFFFFFFFFAD
:10194A00FFFFFFFFFFFFFFFFFFFFFFFFFFFFFFFF9D
:10195A00FFFFFFFFFFFFFFFFFFFFFFFFFFFFFFFF8D
:10196A00FFCF8787838180808080808080C0C0C0CD
:10197A00C08080000000000000000000000000009D
:10198A000000000000000808081818181C1C1C1C7D
:10199A001E1F0F0F070703010100000000000000CF
:1019AA008080C0E0F0F8FFFFFFFFFFFFFFFFFFFFAF
:1019BA00FFFFFFFFFFFFFFFFFFFFFFFF0F0F0F1FDD
:1019CA001F3F3F3F3F7F7F7F7F7FFFFFFF7F7F7FFD
:1019DA007F3F3F1F1F3F7FFFFFFFFFFFFFFFFFFF0D
:1019EA00FFFFFFFFFFFFFFFFFFFFDFDF8F0F0F0F7D
:1019FA000F1F3F7F7FFEFEFCFCF8F0F0E0C0800086
:101A0A0000000000000000000000000000000000CC
:101A1A0000000000000000000080E0F8FCFCFEFF6F
:101A2A00FF7F7F3F3F1F1F0F0F07070303030101BC
:101A3A00030FFFFFFFFFFFFFFFFF3F0F0000000044
:101A4A00000000000000000000000000000000008C
:101A5A00000000000000000000000000000000007C
:101A6A0000010181C1C1C3C3C3E7FFFFFFFFFE3805
:101A7A000000000000000103030307030303000042
:101A8A00000000000000000000000000000000004C
:101A9A000000000000E0F8FCFEFF7F1F0F070301B3
:101AAA00000000000000000000000000000000002C
:101ABA003CFFFFFFFFFFFFFFE38000000000000084
:101ACA00000000000000000000000000000000000C
:101ADA0000000000000000000000000000000000FC
:101AEA0000000001030307070707030301010000C1
:101AFA0000000000000000000000000000000000DC
:101B0A0000000000000000000000000000000000CB
:101B1A0000000000001F3F3F7F7F7C7C7C38000074
:101B2A0000000000000000000000000000000000AB
:101B3A00000001010307070F1F3F7F7E7C7C7C7C2E
:101B4A007C78700000000000000000000000000027
:101B5A00000000000000000000000000000000007B
:101B6A00000000000000000000000000000000006B
:101B7A00000000000000000000000000000000005B
:101B8A00000000000000000000000000000000004B
:101B9A00000000000000000000000000000000003B
:101BAA00000000000000000000000000000000002B
:101BBA00000000000000000000000000000000001B
:101BCA00000000000000000000000000000000000B
:101BDA0000000000000000000000000000000000FB
:101BEA0000000000000000000000000000000000EB
:101BFA0000000000000000000000000000000000DB
:101C0A0000000000000000000000000000000000CA
:101C1A0000000000000000000000000000000000BA
:101C2A0000000000000000000000000000000000AA
:101C3A00000000000000000000000000000000009A
:101C4A00000000000000000000808080C0C0C0E0EA
:101C5A00E0E0E0E0E0E0E0E0C0C0C0C0C0CCCECE52
:101C6A00DFDFFFFFFFFFFFFFFEFEFEFFFFFFFFFFBD
:101C7A00FFFEFEFCF8F8F0E0E0C0C0C0C0C0C080C3
:101C8A00000000000000000000000080C0E0E0F05A
:101C9A00F878783C3C3C3E1E1E1E1F1F0F0F1F1F6C
:101CAA001F1F3E3E3E7EFCFCFCFCFCFCFEFEFEFED4
:101CBA00FFFFFFFFFFFFFFFEFEFEFEFEFEFEFEFE33
:101CCA00FEFEFEFFFFFFFFFFFFFFFFFFFFFFFFFF1D
:101CDA00FFFFFFFFFFFFFFFFFFFFFFFFFFFFFFFF0A
:101CEA00FFFFFFFFFFFFFFFFFFFFFF7F7F3F3F7FFA
:101CFA007F7F7FFFFFFFFFFFFF7F7F3F1F0F0701F0
:101D0A0000000000002030180C0E07070301010034
:101D1A0000000000000000000000000000000000B9
:101D2A0000C0E0F8FCFFFFFFFFFFFFFFFFFFFFFF20
:101D3A00FFFFFFFFFFFFFFFFFFFFFFFFFFFFFFFFA9
:101D4A00FFFFFFFFFFFFFFFFFFFFFFFFFFFFFFFF99
:101D5A00FFFFFFFFFFFFFFFFFFFFFFFFFFFFFFFF89
:101D6A00FFFFFFFFCFC7C3C3C1C1C0C0C0C0C0C04F
:101D7A00C0C0C0C0808080000000000000000000D9
:101D8A000000000000000000000000000000000049
:101D9A00000080C0E0E0E0E0F0F0F0F8F8F8FCFEC7
:101DAA00FFFFFFFFFFFFFFFFFFFFFFFFFFFFFFFF39
:101DBA00FFFF7F1F0F030101010101010101010161
:101DCA00030307070F0F1F1F1F3F3F3F3F3F3F3FC1
:101DDA003F3F1F1F1F1F1F0F0F0F070F0F1F1F3F11
:101DEA003F7F7F7F7F7FFFFFFFFFF7E3E3C3C3836D
:101DFA00838707070F0F0F1F1F1F1E9E9C888000D7
:101E0A00000000000000E0F0E0E0E0E0F0F0F8FCA4
:101E1A00FEFFFF7F3F1F0F07C3F3FBFFFFFFFFFF1D
:101E2A007F7F7F7F7F3F3F3F1F1F1F0F0F070303E8
:101E3A000100000000000000000000000000000097
:101E4A000000000000000000000000000000000088
:101E5A000000000000000000000000000000000078
:101E6A0000000000000000000001010307070F0F37
:101E7A000F0F0F0F0F0F0F0F0F0F0F0F0F0F070778
:101E8A000000000000000001030707070707070317
:101E9A000101000000F0FCFEFFFFFF3F0F070100F9
:101EAA000000000000000000000000000000000028
:101EBA000000000000000000000000000000000018
:101ECA000000000000000000000000000000000008
:101EDA0000000000000000000000000000000000F8
:101EEA0000000000000000000000000000000000E8
:101EFA0000000000000000000000000000000000D8
:101F0A0000000000000000000000000000000000C7
:101F1A000000000000071F3F3F7F7F7E7C7C380067
:101F2A0000000000000000000000000000000000A7
:101F3A000000000000000000000000000000000097
:101F4A000000000000000000000000000000000087
:101F5A000000000000000000000000000000000077
:101F6A000000000000000000000000000000000067
:101F7A000000000000000000000000000000000057
:101F8A000000000000000000000000000000000047
:101F9A00000080808080C0C0C0C0C0C0C0C0C0C0B7
:101FAA00C0C0C0C0C0C08080800000000000000027
:101FBA000000000000000000000000000000000017
:101FCA000000000000000000000000000000000007
:101FDA0000000000000000000000000000000000F7
:101FEA0000000000000080808080808000000000E7
:101FFA0000000000000000000000000000000000D7
:10200A0000000000000000000000000000020203BF
:10201A0001010101010101010101010101010103A4
:10202A0003030707070F0F1F3F3F7FFEFCFCF8F073
:10203A00F0F8F8F8F8FCFCFCFCFCFCFCFCF8F8F8FE
:10204A00F8F8F0F0F0F0F0E0E0E0E0E0E0E0C0C046
:10205A00E0E0E0E0E0E0E0E0E0F0F0E0E0E0E0C076
:10206A00C08080828387878F8F9FFFFFFFFFFEFCE0
:10207A00F8F8F0F8F8F0F0F0E0E0C08000000000B6
:10208A000000000000000000000000000000000046
:10209A000000000000000000000000000000000036
:1020AA00000000000000000000C0F8FEFFFFFFFF74
:1020BA00FFFFFFFFFFFFFFFFFFFFFFFFFFFFFFFF26
:1020CA00FFFFFFFFFFFFFFFFFFFFFFFFFFFFFFFF16
:1020DA00FFFFFFFFFFFFFFFFFFFFFFFFFFFFFFFF06
:1020EA00FFFFFFFFFFFFFFFFFFFFFFFFFFFFFFFFF6
:1020FA00FFFFFFFFFFFFFFFFFFFFFFFFFFFFFEFCEA
:10210A00FC7C3818000000000000000000000000FD
:10211A00000000008080C0E0F0FCFCFE7E7EFEFE37
:10212A00FCFCF8F8F0F0F8FCFEFFFFFFFFFFFFFFF2
:10213A00FFFFFFFFFFFFFFFFFF7F7F3F1F1F0F0F05
:10214A000F0F1F3F7FFFFFFFFFFFFFFFFFFFFFFF95
:10215A00FFFFFFFFFFFFFFFFFFFFFFFFFFFFFFFF85
:10216A00FFFFFFFFFF7F3F3F1F0F0F0F0707070309
:10217A00030303010101030303030303030303012D
:10218A00000000000000000000000000000000073E
:10219A001FBFFFFFFFFFFFFFFFFFFF7E7E7F3F3F67
:1021AA003F3F3F3F7F7F7F7F3F3F3F1F0F0F070725
:1021BA000703030303010100000000000000000000
:1021CA0000000000000001030307070F0F0F1F1F85
:1021DA001F1F1F1F1F1F1F1F1F1FFFFFFFFFFFFFC5
:1021EA00FFFFFFFFFFFFFCF8F8F0F0F0E0E0C0C0EF
:1021FA0080800000000000000000000000000000D5
:10220A0000000000000070F0F8F8F8F8FC7C7E7E10
:10221A003F1F1F0F07070301010000000000000015
:10222A0000000000000000000000000000000000A4
:10223A000000000000000000000000000000000094
:10224A000000000000000000000000000000000084
:10225A00000000000000000000000F1F7FFFFFFFCA
:10226A00FFFFFFF9C1030307070F0F0F1F1F1F3FD0
:10227A003F3F3F7F7E7E7C7C7CF8F8F8FCFCFCFCD0
:10228A00FC7C3C1800000000000000000000000078
:10229A000000000000000000000000000000000034
:1022AA000000000000000000000000000000000024
:1022BA000000000000000000000000000000000014
:1022CA000000000000000000000000000000000004
:1022DA0000000000000000000000000000000107EC
:1022EA000F1F3F7FFFFFFEFCF8E0C08000000000E8
:1022FA0000000000000000000000000000000000D4
:10230A0000000000000000000000000000000000C3
:10231A0000000000000000000000000000000000B3
:10232A0000000000000000000000000000000000A3
:10233A000000000000000000000000000000000093
:10234A000000000000000000000000000000000083
:10235A000000000000000000000000000000000073
:10236A00000000000103070F1F1F3F7F7F7E7C7C58
:10237A007C7C7C3C3C38000000000000000000002F
:10238A000000000000000000000000000000000043
:10239A00000008080C0C0606060707070F1F1E3E5A
:1023AA007E7CFCF8F8F0E0E0C0800000000000004D
:1023BA000000000000000000000000000000000013
:1023CA000000000000000000000000000000000003
:1023DA0000000000000000000000000000000000F3
:1023EA0000000000000000000000000000000000E3
:1023FA0000000000000000000000000000000000D3
:10240A0000000000000000000000000000000000C2
:10241A0000000000000000000000000000000000B2
:10242A00000000010303070F0F1F3F3F7EFCFCF86B
:10243A00F8F8F8FCFCFCFCFCFCFCFCFCFCFCF8F8E6
:10244A00F8F0F0E0E0C0C0808080000000000000EA
:10245A000000000000000000000000000000000072
:10246A00000000003078F8F8F8F8F0E0C0800000CA
:10247A000000000000000000000000000000000052
:10248A000000000000000000000000000000000042
:10249A0000000000000000000080C0E0F0F8F8F83A
:1024AA00F8F0F0C08080808080E0F0F8FFFFFFFF46
:1024BA00FFFFFFFFFFFFFFFFFFFFFFFFFFFFFFFF22
:1024CA00FFFFFFFFFFFFFFFFFFFFFFFFFEFEFEFE16
:1024DA00FEFEFEFCFCFCFCFCFCFCFCFCF8F8F8F044
:1024EA00E0E0E0E0E0E0E0E3FFFFFFFFFFFFFEFEE9
:1024FA00FEFEFEFEFEFCF8F0E0C0800000000000D8
:10250A000000000000000000000000E0E0E0F0F041
:10251A00F0F0F8F8FCFCFE7F7F3F1F0F0F0707075C
:10252A00878FCFFFFFFFFFFFFFFFFFFFFFFFFFFFC9
:10253A00FFFFFFFFFFFFFFFFFFFFFFFFFFFFFF7F21
:10254A003F7FFFFFFFFFFFFFFFFFFFFFFFFFFFFFD1
:10255A00FFFFFFFFFFFFFFFFFFFFFFFFFFFFFFFF81
:10256A00FFFFFFFFFFFFFFFFFFFFFFFFFFFFFFFF71
:10257A00FFFFFFFFFFFFFFFFFFFFFFFFFFFEFE7EE4
:10258A003C0C0000000000000000000001010303F1
:10259A0003030303030100001C3E3E3E3E3F3F1F70
:1025AA001F1F1F0F0F0F0703030303030303030375
:1025BA0003030301030303030301010101000000F4
:1025CA0000000103070F0F1F1FBFFFFFFFFFFFFFE1
:1025DA00FFFFFFFFFFFFFFFFFFFFFFFFFFFFFFFF01
:1025EA00FF9F1F0F0F0707030303010101010000EB
:1025FA0000000101030303030303030301010000B5
:10260A0000000000000000000000000000000000C0
:10261A0000000000000000000000000000000000B0
:10262A0000000000000000000000000000000000A0
:10263A000000000000000000000000000000000090
:10264A000000000000C0F0FCFFFFFFFFFF7F3F1FFC
:10265A000F070301010101030F0F1F3F3F7F7FFF98
:10266A00FFFFFFFEFCF8F0E0C08000000000000061
:10267A000000000000000000000000000000000050
:10268A000000000000000000000000000000000040
:10269A000000000000000000000000000000000030
:1026AA000000000000000000000000000000000020
:1026BA000000000000000000000000000000000010
:1026CA000000E0FCFFFFFF3F1F07030100000000BE
:1026DA0000000000000000000000000000000000F0
:1026EA000001010303070F1F1F3F7F7EFCF8F8F06C
:1026FA00F0E0E0E0E0E0E0C0800000000000000060
:10270A0000000000000000000000000000000000BF
:10271A0000000000000000000000000000000000AF
:10272A00000000000000000000000000000000009F
:10273A00000000000000000000000000000000008F
:10274A0000001F3F3F7F7F7F7E7C3000000000003B
:10275A00000000000000000000000000000000006F
:10276A00000000000000000000000000000101015C
:10277A000303030303030303030000000000000034
:10278A00000000000000000000000000000000003F
:10279A00000000000000000000000000000000002F
:1027AA00000000808080808000008080008000001F
:1027BA00000000000000000000808000000000000F
:1027CA0000000000000000000000000000000000FF
:1027DA0000000000000000000000000000000000EF
:1027EA0000000000000000000000000000000000DF
:1027FA0000000000000000000000000000000000CF
:10280A0000000000000000000000000000000000BE
:10281A0000000000000000000000C0F0F8FCFCFE10
:10282A00FFFFFFFFFFFFFF7F7FFFFFFFFFFFFFFFAE
:10283A00FFFEFEFCFCFCF8F0E0C181000000000095
:10284A00000000000000000000000000000000007E
:10285A000000007F06386018067F00007F300C02F7
:10286A007F00007F40407F40407F0000601C1317BC
:10287A003840007F0808087F00463909097F0000B0
:10288A00000000000000000000000000000000003E
:10289A0000000000000000C0FCFFFF3F1F1F0F3FA9
:1028AA0003030301030100000000000103030F1FDB
:1028BA001F3F7FFF7FFFFFFFFFFFFFFCF0C000000D
:1028CA00000000000000000000080A023232323222
:1028DA0000000000000000000000000000000000EE
:1028EA0000000000000000000000000000000000DE
:1028FA0000000000000000000000000000000000CE
:10290A00000000000000000000800000000000003D
:10291A0000000000C000FFFF7F67F85CDCCCCCFC45
:10292A00FCF8D8D8C0404040503838ACACFEDEDEA7
:10293A00CE9E1E1CD890E0E1DFFFFFFFFFFFFC7078
:10294A00F07060E0E0E0E0E0E0A06060E0E0E0403D
:10295A00000000000000000000000000000000006D
:10296A00000001010000002040402000000000009B
:10297A00000000000000000000000000000000004D
:10298A000000000000000000C040808080A4888809
:10299A00888191959A9050066143130603030003B8
:1029AA00070083090E0000000700830503000303E4
:1029BA000002030000000101877F0F3F7F1F0B10F9
:1029CA00191910564A444C4C4E6E7CBCB6F99E926C
:1029DA000000000000000000000000007F0101016B
:1029EA00007F494949007F300C027F000000000047
:1029FA00080808081830E000000000000000000085
:102A0A00000000000000000C0808081A1810101036
:102A1A000000000000008080D7FC7E78C000000023
:102A2A000000000C0808000014180800000000004C
:102A3A0000000000000080F6E2211001010101817E
:102A4A008082824A4A42416062222222405020A267
:102A5A00000000000000000000808080808080C0AC
:102A6A00400000000000000000000000000000001C
:102A7A00000080C060300F0000000000000000006D
:102A8A00000000000000009CBCB0B0B1B9B8BC9C0A
:102A9A009CCEC6E7EBE7F5FAFAFDFDEEE6E6E0E0E6
:102AAA000080010101010109010303030200000082
:102ABA00800040000080FF8F3E1E020703010100D4
:102ACA0000000000000000000000000000000002FA
:102ADA0000000000001C3EFEFFBF333331212120DD
:102AEA0020202020201010101008080808040402D2
:102AFA0002010100000000000000000000000000C8
:102B0A00000000000000000707070707070707077C
:102B1A00070707070707070707070707070707073B
:102B2A000000010202060404040404000002000179
:102B3A000000000000070703000706040400000065
:102B4A00000000000000000000000000000000007B
:102B5A00000000000000000003070E0C0000000047
:102B6A00000000000000000000000000000000005B
:102B7A00000000000000000000000000000000004B
:102B8A000000000001010000000000000000CFEE7C
:102B9A00EAE020EDE520EFF0E8F1EBE0EDEE2E2E95
:102BAA002E0010003C686561643E3C6C696E6B20C7
:102BBA0072656C3D2769636F6E27687265663D278B
:102BCA00646174613A696D6167652F626D703B6219
:102BDA0061736536342C516B312B4141414141417E
:102BEA004141414434414141416F414141414541A3
:102BFA0041414142414141414142414145414141B5
:102C0A004141414541414141423045674141644268
:102C1A004941414141414141414141414141414192
:102C2A00414141502F2F2F7741502F414141502F81
:102C3A003441414741474141444B717741416971B0
:102C4A006B41414D41444141442F2F7741412F6A05
:102C5A003841414D636A41414337585141417131CD
:102C6A005541414C70644141444834774141502FA9
:102C7A0034414141717141414141414141412774CE
:102C8A007970653D27696D6167652F782D706E676C
:102C9A00272F3E3C2F686561643E3C7374796C65EE
:102CAA003E68312C68322C68332C696E7075742C2E
:102CBA00692C73656C6563747B666F6E742D7369BA
:102CCA007A653A343070787D68317B636F6C6F72E5
:102CDA003A233030303066307D68327B636F6C6FF8
:102CEA00723A236130613030307D68337B636F6CB8
:102CFA006F723A236630663030307D697B636F6C61
:102D0A006F723A233939303037337D696E70757492
:102D1A002C73656C6563747B636F6C6F723A2330D6
:102D2A0030393939397D3C2F7374796C653E3C688A
:102D3A00313E323536304D4F44554C4520C4C5CC12
:102D4A00CE203C2F68313E3C666F726D3E3C693E38
:102D5A005465787420746F204F4C4544206469731D
:102D6A00706C61793A3C2F693E3C696E70757420CB
:102D7A006E616D653D27542773697A653D27323048
:102D8A00276D61786C656E6774683D273230273E1F
:102D9A003C696E70757420747970653D277375622D
:102DAA006D69742776616C75653D2753454E4427D6
:102DBA003E3C2F666F726D3E3C666F726D3E3C699B
:102DCA003E524742204C4544204F4E2F4F46463AEA
:102DDA003C2F693E3C696E70757420747970653D4C
:102DEA00277375626D6974276E616D653D274C277F
:102DFA0076616C75653D274C4544273E3C2F666FCE
:102E0A00726D3E003C68333E544558542053484F37
:102E1A00554C4420474F20544F204F4C45442020C6
:102E2A00203C2F68333E003C68333E554E42454CA9
:102E3A0049455641424C4520205355434345535337
:102E4A00202121213C2F68333E003C68333E205923
:102E5A00455420414E4F544845522053554343450B
:102E6A00535321202020203C2F68333E003C6833F6
:102E7A003E574F572120534F204D55434820535515
:102E8A0043434553532E2E2E20203C2F68333E00B9
:102E9A003C68333E5245414C4C593F204152454EC5
:102EAA00275420594F552054495245443F3C2F68D6
:102EBA00333E003C68333E594F5520415245205419
:102ECA004845204C45442052554C45522121212049
:102EDA003C2F68333E003C68333E5354494C4C20E7
:102EEA0046554E2C2048413F2020202020202020DB
:102EFA002020203C2F68333E41542B52535400412A
:102F0A005445300041542B43495041505F43555278
:102F1A003D223139322E3136382E302E31303022A0
:102F2A000041542B43575341505F4355523D22327F
:102F3A0035363044454D4F222C22222C312C302C50
:102F4A00312C300041542B43574D4F44453D3200FC
:102F5A0041542B4349504D55583D310041542B4360
:102F6A0049505345525645523D312C383000415450
:102F7A002B434950434C4F53453D0041542B434941
:102F8A005053454E443D0041542B554152545F43E2
:102F9A0055523D393630302C382C312C302C3000FB
:102FAA0041542B554152545F4355523D31313532CC
:102FBA0030302C382C312C302C300057694669209F
:102FCA00D2C5CAD1D23A0045004E004300000700DC
:102FDA000A0005008E2B1300620B982B0100850B4B
:102FEA00AC2B5F02290CAE2BF400890E0E2E0700C3
:102FFA00000A022F0500070A092F1D000C0A0E2FCE
:10300A002300290A2B2F0C004C0A4E2F0C00580AB9
:10301A005A2F1200640A662F0D00760A782F0C00C8
:10302A00830A852F19008F0A912F1B00A80AAA2F3D
:10303A000C00C30AC52F0200CF0AD12F0200D10A01
:10304A00D32F0200D30AD52F0200D50AD12F0200AE
:10305A00D70AD32F0200D90AD52F0100DD0AD82FAB
:10306A000000F894EE27EFBBF1E0F5BFE5BFE0936F
:10307A007400E09375008DE0A2E0BB27ED938A957A
:10308A00E9F780E090E2A0E0B2E0ED930197E9F77A
:10309A00EAEDFFE285919591009761F0A591B591CE
:1030AA0005901590BF01F00105900D920197E1F787
:1030BA00FB01F0CF8BBF8CBFE0E0EEBBEFEFEDBFC3
:1030CA00E1E2EEBFC0E0DAE00C94AF1FE0E0EA9381
:1030DA00A5ED57D0E0E0EA93A0E853D0E0E0EA9308
:1030EA00A8EA4FD0E0E0EA93AFE34BD0E0E0EA93FE
:1030FA00A3ED47D0E0E0EA93A0E043D0E0E0EA9312
:10310A00A0E43FD0E0E0EA93ADE83BD0E0E0EA9308
:10311A00A4E137D0E0E0EA93A0E233D0E0E0EA931A
:10312A00A2E02FD0E0E0EA93A1EA2BD0E0E0EA9314
:10313A00A8EC27D0E0E0EA93AAED23D0E0E0EA93F6
:10314A00A2E11FD0E0E0EA93A9ED1BD0E0E0EA9308
:10315A00A1EF17D0E0E0EA93ABED13D0E0E0EA93F9
:10316A00A0E40FD0E0E0EA93A4EA0BD0AFEF38D0A6
:10317A00E0E0EA93AFEA05D0E0E0EA93A0E018D0F5
:10318A000895AA93E981E093DE0AE881E093DF0AD1
:10319A00ECE3EA93EEEDFAE0FA93EA93E2E0EA93DB
:1031AA00E0E0F0E0FA93EA93A0E00E94D62216C08B
:1031BA00AA9349803880E0E0EA93A981A055E1DF2B
:1031CA00E0E0EA93EA81EF70AE2FDBDFE0E0EA931A
:1031DA00EA81E295EF70E061AE2FD3DF229608957F
:1031EA00AA93E0E0EA93A1E8CCDFE0E0EA93A981C0
:1031FA00C8DF21960895BA93AA930E94092530E060
:10320A003830E0F5E0E0EA93A32FA055BADFE0E416
:10321A00E093DE0A00E010E00038E0E01E07E8F480
:10322A00EC81FD81309731F4F801E152F54FA0E0CD
:10323A00A08310C0F801E152F54FBF01E0E8E39F17
:10324A00F001E00FF11FAC81BD81EA0FFB1FE49191
:10325A00DB01EC930F5F1F4FDFCFECE3EA93EEED58
:10326A00FAE0FA93EA93E1E8EA93E0E0F0E0FA930D
:10327A00EA93A0E00E94D6223F5FC2CF0E941025A7
:10328A0026960895AA931A930A9310E0E0E4E0932D
:10329A00DE0AEA81E030C9F410E01530A8F4E12F23
:1032AA00F0E0E152F54FBF01AB81E5E0EA9FF001A2
:1032BA00DF01E12FF0E0EA0FFB1FE251FF4FE4913B
:1032CA00DB01EC931F5FE9CF1DC010E01A30D0F488
:1032DA00E12FF0E0E152F54FFF93EF93AB81E5E088
:1032EA00EA9FB001A12FB0E0E2E0F0E00E94EA24F8
:1032FA00E60FF71FE251FF4FE491AF91BF91EC93B4
:10330A001F5FE4CFE12FF0E0E152F54FA0E0A08388
:10331A00ECE3EA93EEEDFAE0FA93EA93ED81A5E0A5
:10332A00EA02F001E95FEA93E0E0F0E0FA93EA9357
:10333A00A0E00E94D622AA81A13011F4EBE001C0DC
:10334A00E8E04E0E1981088191C1AA930E940925CD
:10335A0010E000E0332DAC81AE3231F0A03221F022
:10336A00A03211F0A33409F403C0EC81E0530EC07B
:10337A00AC81AE3211F4EBE0EC83AC81A03211F4F3
:10338A00ECE0EC83AC81A33411F4EDE0EC8300E0D3
:10339A000430B0F5E0E4E093DE0A10E01831D8F426
:1033AA00E12FF0E0E152F54FCF01EC81A0E6EA9F70
:1033BA00F001E251FA4FBF01E8E1E09FF001DF01BD
:1033CA00E12FF0E0EA0FFB1FE60FF71FE491DC01A3
:1033DA00EC931F5FE3CFECE3EA93EEEDFAE0FA93A6
:1033EA00EA93E9E1EA93E0E0F0E0FA93EA93A0E0F5
:1033FA000E94D6224A92A32DAF5FDADE0F5FC8CFB2
:10340A00E7E14E0E4A92A32FD3DE0E94102525969D
:10341A000895AA93A981BA81EC91E030F9F0E88184
:10342A00E03031F4ED91A983BA83EA93A0E02ADF70
:10343A00A881A13041F4A981BA81ED91A983BA8307
:10344A00EA93A1E01FDFA881A23039F4A981BA81E9
:10345A00ED91A983BA83AE2F78DFDCCF2396089546
:10346A00E0E3E093790DE0937B0DE0937D0DE0912D
:10347A00860BF0E0309749F1E530A0E0FA0721F039
:10348A00E130A0E0FA0721F4E6E6E0937B0D20C0E4
:10349A00E630A0E0FA0721F0E230A0E0FA0721F4D2
:1034AA00E6E6E093790D14C0E330A0E0FA0731F4C0
:1034BA00E6E6E093790DE0937B0D0AC0E430A0E0E4
:1034CA00FA0731F4E6E6E0937B0DE6E6E0937D0D3C
:1034DA0008950E94092510E0153008F0C5C0E12FB3
:1034EA00F0E0E957F44FA081A13008F4BBC0E0ED49
:1034FA00E093850BE12FF0E0EE5DF34FA081A13060
:10350A0008F4A9C0AAE20E949822E12FF0E0EE5D39
:10351A00F34FA081A63009F054C030E000E0043136
:10352A0008F040C0AEE11A9FF001E457F44FDF0102
:10353A00EE27A00FBE1FEC91E03009F431E0AEE1B6
:10354A001A9FF001E457F44FDF01EE27A00FBE1FC8
:10355A00AC91AB3259F4AEE11A9FF001E457F44F43
:10356A00DF01EE27A00FBE1FE0E2EC93303091F4AA
:10357A00E02FF0E0EE59F44FBF01AEE11A9FF001DF
:10358A00E457F44FDF01EE27A00FBE1FEC91DB01D9
:10359A00EC9306C0E02FF0E0EE59F44FA0E2A083CE
:1035AA000F5FBDCFE0E0E093760BE091860BEF5F13
:1035BA00E093860BA091860BA53018F0E1E0E0932A
:1035CA00860BE12FF0E0EE5DF34FA081A73079F48E
:1035DA00AA2019F4E1E0AE2E01C0AA24A091860B1C
:1035EA00A53011F4E6E001C0E5E0E093860B38DF90
:1035FA00E0E0ED1518F4E1E0E715D1F7E8E0EA9329
:10360A001A93A1E8B2E0B9D3A5E10E949822E3E0B7
:10361A00EB1519F0E1E0E715D1F7E1E0EA93A9E249
:10362A00BCE024D6E1E0EA93E091860BA3E2EA9FAC
:10363A00F001E757F14FDF0119D6A5E10E94982260
:10364A00E1E0EB1511F0E715D9F7E7E0EA931A93F1
:10365A00A0E0B0E092D3E12FF0E0E957F44FA0E008
:10366A00A08302C01F5F38CF0E94102524960895B8
:10367A000A921A92AA93BA93EA93FA93EFB7EA9341
:10368A001A931091CE00E091810BE093800BE091A8
:10369A00820BE093810BE091830BE093820BE09124
:1036AA00840BE093830B1093840BEC2DF0E030979E
:1036BA0009F456C3E130A0E0FA0709F0C0C0BB2400
:1036CA00A091820BAF3441F4A091830BAB3421F467
:1036DA00A091840BAD3009F002C0E1E07CC0A0915A
:1036EA00800BA53441F4A091810BA23521F4A0915D
:1036FA00820BA23509F002C0E2E06DC0A091820BF4
:10370A00AA3041F4A091830BAE3321F4A091840B2B
:10371A00A03209F002C0E3E05EC0A091800BA93498
:10372A0061F4A091810BA03541F4A091820BA434DD
:10373A0021F4A091830BAC3209F002C0E4E04BC043
:10374A00A091800BA73481F4A091810BA53461F478
:10375A00A091820BA43541F4A091830BA03221F4ED
:10376A00A091840BAF3209F002C0E5E034C0A09109
:10377A00820BAF3321F4A091840BAD3309F00EC054
:10378A00A091830BA43511F4E6E025C0A091830B28
:10379A00AC3411F4E7E01FC0EEE1BE2EA091820B1B
:1037AA00AF3241F4A091830BA03221F4A091840B93
:1037BA00A83409F002C0EEE10EC0A091820BAD3030
:1037CA0041F4A091830BAA3021F4A091840BAD306F
:1037DA0009F003C0E2E3BE2E1BC0A091800BA13604
:1037EA0081F4A091810BA43661F4A091820BA937D0
:1037FA0041F4A091830BAD3021F4A091840BAA303F
:10380A0009F006C0E1E0F0E0E093270CF093280C01
:10381A00E0E0EB1598F4EB2DF0E0E430A0E0FA07D5
:10382A0069F4E1E0DE2EE091840BE0539E2EE4E0A1
:10383A00E91520F0EE24E2E0CE2E95C291C2E230E4
:10384A00A0E0FA0709F0BEC0EDE0EE1608F0B7C036
:10385A00E394BB24A091820BAF3441F4A091830B73
:10386A00AB3421F4A091840BAD3009F002C0E1E041
:10387A007CC0A091800BA53441F4A091810BA235A4
:10388A0021F4A091820BA23509F002C0E2E06DC0DA
:10389A00A091820BAA3041F4A091830BAE3321F49C
:1038AA00A091840BA03209F002C0E3E05EC0A091AF
:1038BA00800BA93461F4A091810BA03541F4A09149
:1038CA00820BA43421F4A091830BAC3209F002C01C
:1038DA00E4E04BC0A091800BA73481F4A091810B46
:1038EA00A53461F4A091820BA43541F4A091830B15
:1038FA00A03221F4A091840BAF3209F002C0E5E0B6
:10390A0034C0A091820BAF3321F4A091840BAD3364
:10391A0009F00EC0A091830BA43511F4E6E025C08E
:10392A00A091830BAC3411F4E7E01FC0EEE1BE2E88
:10393A00A091820BAF3241F4A091830BA03221F403
:10394A00A091840BA83409F002C0EEE10EC0A09148
:10395A00820BAD3041F4A091830BAA3021F4A091DF
:10396A00840BAD3009F003C0E2E3BE2E1BC0A09168
:10397A00800BA13681F4A091810BA43661F4A09149
:10398A00820BA93741F4A091830BAD3021F4A091A9
:10399A00840BAA3009F006C0E1E0F0E0E093270CBE
:1039AA00F093280CE5E0EB1549F4E3E0CE2EEE2483
:1039BA00E92DF0E0EE5DF34FA0E0A083D4C1E5E08D
:1039CA00CE2ED1C1E330A0E0FA0709F0D6C0E6E076
:1039DA00EE1608F0CBC0E394BB24A091820BAF345F
:1039EA0041F4A091830BAB3421F4A091840BAD3048
:1039FA0009F002C0E1E07CC0A091800BA53441F43B
:103A0A00A091810BA23521F4A091820BA23509F075
:103A1A0002C0E2E06DC0A091820BAA3041F4A091ED
:103A2A00830BAE3321F4A091840BA03209F002C0BB
:103A3A00E3E05EC0A091800BA93461F4A091810BF0
:103A4A00A03541F4A091820BA43421F4A091830BF8
:103A5A00AC3209F002C0E4E04BC0A091800BA7345D
:103A6A0081F4A091810BA53461F4A091820BA43555
:103A7A0041F4A091830BA03221F4A091840BAF32C0
:103A8A0009F002C0E5E034C0A091820BAF3321F403
:103A9A00A091840BAD3309F00EC0A091830BA4351D
:103AAA0011F4E6E025C0A091830BAC3411F4E7E0F1
:103ABA001FC0EEE1BE2EA091820BAF3241F4A0915D
:103ACA00830BA03221F4A091840BA83409F002C020
:103ADA00EEE10EC0A091820BAD3041F4A091830BB0
:103AEA00AA3021F4A091840BAD3009F003C0E2E3BF
:103AFA00BE2E1BC0A091800BA13681F4A091810B30
:103B0A00A43661F4A091820BA93741F4A091830BEA
:103B1A00AD3021F4A091840BAA3009F006C0E1E08F
:103B2A00F0E0E093270CF093280CEEE1EB1571F42A
:103B3A00E92DF0E0EE5DF34FB082E92DF0E0E957B0
:103B4A00F44FA1E0A083E5E0CE2E0DC1E6E0BE165B
:103B5A0018F0ECE0EB1508F408C0E4E0CE2EEE24F1
:103B6A00E92DF0E0EE5DF34FB082FDC0E92DF0E003
:103B7A00E957F44FA1E0A083F3C0E430A0E0FA07CC
:103B8A00D9F5EEE1EE1620F51032A1F4E92DAEE1F9
:103B9A00EA9FF001E457F44FDF01EE27AE0DBE1F96
:103BAA00EC93E92DF0E0E957F44FA1E0A083E5E0BA
:103BBA00CE2ED9C0E92DAEE1EA9FF001E457F44FC9
:103BCA00DF01EE2DF0E0EA0FFB1F1083E394CBC078
:103BDA00E92DF0E0E957F44FA1E0A083E92DAEE129
:103BEA00EA9FF001E457F44FDF01EE27AE0DBE1F46
:103BFA00EC93E5E0CE2EB7C0E530A0E0FA0709F075
:103C0A00AFC0BB24A091820BAF3441F4A091830BC7
:103C1A00AB3421F4A091840BAD3009F002C0E1E08D
:103C2A007CC0A091800BA53441F4A091810BA235F0
:103C3A0021F4A091820BA23509F002C0E2E06DC026
:103C4A00A091820BAA3041F4A091830BAE3321F4E8
:103C5A00A091840BA03209F002C0E3E05EC0A091FB
:103C6A00800BA93461F4A091810BA03541F4A09195
:103C7A00820BA43421F4A091830BAC3209F002C068
:103C8A00E4E04BC0A091800BA73481F4A091810B92
:103C9A00A53461F4A091820BA43541F4A091830B61
:103CAA00A03221F4A091840BAF3209F002C0E5E002
:103CBA0034C0A091820BAF3321F4A091840BAD33B1
:103CCA0009F00EC0A091830BA43511F4E6E025C0DB
:103CDA00A091830BAC3411F4E7E01FC0EEE1BE2ED5
:103CEA00A091820BAF3241F4A091830BA03221F450
:103CFA00A091840BA83409F002C0EEE10EC0A09195
:103D0A00820BAD3041F4A091830BAA3021F4A0912B
:103D1A00840BAD3009F003C0E2E3BE2E1BC0A091B4
:103D2A00800BA13681F4A091810BA43661F4A09195
:103D3A00820BA93741F4A091830BAD3021F4A091F5
:103D4A00840BAA3009F006C0E1E0F0E0E093270C0A
:103D5A00F093280CE2E3EB1511F4DD2401C003C053
:103D6A00E1E0CE2EEE241991E991EFBFF991E991A4
:103D7A00B991A991199009901895BA93AA932B977A
:103D8A00EE85F0E0309731F4E1E0EA93A0E0BAE0A2
:103D9A006DD278C0E130A0E0FA0731F4E1E0EA93AD
:103DAA00A7E0BAE063D26EC0E230A0E0FA0731F4CD
:103DBA00E1E0EA93ACE0BAE059D264C0E330A0E0B3
:103DCA00FA0731F4E1E0EA93A9E2BAE04FD25AC025
:103DDA00E430A0E0FA0731F4E1E0EA93ACE4BAE0B7
:103DEA0045D250C0E530A0E0FA0731F4E1E0EA93A9
:103DFA00A8E5BAE03BD246C0E630A0E0FA0731F4C3
:103E0A00E1E0EA93A4E6BAE031D23CC0E730A0E0B0
:103E1A00FA0749F4E1E0EA93A6E7BAE027D2AD85CA
:103E2A00A05D1AD22FC0E830A0E0FA07B1F4E1E0B1
:103E3A00EA93A3E8BAE01AD2AD85A05D0DD2ACE24E
:103E4A000BD2FE01FA93EA93AD85BE853BD2E1E03F
:103E5A00EA93DE0111960AD215C0E930A0E0FA070A
:103E6A0031F4E1E0EA93AFE8BAE000D20BC0EA30FD
:103E7A00A0E0FA0731F4E1E0EA93A8EABAE0F6D161
:103E8A0001C004C0ADE0E8D1AAE0E6D12F960895BA
:103E9A00E1E0EA93A1E070D1A1E00E948722E1E08B
:103EAA00EA93E0E0EA93A0E0B0E067DFA4E00E94D2
:103EBA008722E2E0EA93E0E0EA93A0E0B0E05DDF87
:103ECA00A4E00E948722E3E0EA93E0E0EA93A0E01C
:103EDA00B0E053DFA4E00E948722E4E0EA93E0E046
:103EEA00EA93A0E0B0E049DFA4E00E948722E5E07F
:103EFA00EA93E0E0EA93A0E0B0E03FDFA4E00E94AA
:103F0A008722E6E0EA93E0E0EA93A0E0B0E035DF5A
:103F1A0008951A930A931091C0000091C60009915E
:103F2A0019911895AA93EA93EFB7EA93EBEAE0930B
:103F3A008500E0EAE0938400A091850BA13028F087
:103F4A00E091850BE150E093850BE991EFBFE99190
:103F5A00A9911895649700E0DAD05498A4E6B0E0E5
:103F6A000E94BC24B3D8A1E0B0E00E94BC24E0E0E7
:103F7A00EA93A0E001D1789410E01330B8F4AEE8E7
:103F8A00BBE039D9AEE8BFE036D9AEE8B3E133D900
:103F9A00AEE8B7E130D9AEE8BBE12DD9AEE8BFE172
:103FAA002AD9AEE8B3E227D91F5FE7CFE0E0EA9368
:103FBA00A7EAE7D8AEE8B7E21ED9A8E8B3E10E94BB
:103FCA00BC24E0E0EA93A6EADCD8A0E0B0E013D98A
:103FDA00E0E0EA93A1E0ECD8E3ECFAE0FA93EA93A2
:103FEA00A1E017DAE0E0EA93A5E0E2D8EFECFAE024
:103FFA00FA93EA93A1E00DDAE0E0EA93A6E0D8D8D2
:10400A00E1EDFAE0FA93EA93A1E003DAE0E0EA9359
:10401A00A7E0CED8E3EDFAE0FA93EA93A1E0F9D962
:10402A00E4E7EA93A5E0C4D8E5EDFAE0FA93EA9367
:10403A00A1E0EFD9E4E7EA93A6E0BAD8E7EDFAE01F
:10404A00FA93EA93A1E0E5D9E4E7EA93A7E0B0D8C6
:10405A00E9EDFAE0FA93EA93A1E0DBD9E0E0EA932A
:10406A00A3E0A6D8E2E6FBE0FA93EA93A0E0D1D96E
:10407A000FDFEBE1EA93A4E09BD8082DFE01FA9347
:10408A00EA93A02FBB271ED1043610F4A0E25DD913
:10409A000A3010F4A0E259D9FE01FA93EA93A2E099
:1040AA00B8D9A1E4CFD0E02FEE0FEE0FEE0FAE2F6E
:1040BA000E944322E0E0EA1548F4E091600BEA939B
:1040CA00E0915F0BEA93A091610B12C0E091600B43
:1040DA00E295EF70E695EA93E0915F0BE295EF7057
:1040EA00E695EA93E091610BE295EF70E695AE2FC3
:1040FA007ED1EFD9E0E0EA93A3E00E94DD18E2E680
:10410A00FBE0FA93EA93A0E084D9B3CFFFCFE0E8CB
:10411A00E0936100E0E0E093610050985198589A6A
:10412A00599A809A889A0F9AE0E3E0936B00E0E14B
:10413A00E0936C00E3E0E0936800E0E0E093900035
:10414A00E0939100E0939100E0939500E09394004E
:10415A00E1E0E0937100E4E0E0938100EBEAE093B0
:10416A008500E0EAE0938400E1E0E0936F00A4E6D2
:10417A00B0E00E94A8220895AA93E981F0E030975E
:10418A00A9F4E0E0E093C000E8E9E093C100E6E0CA
:10419A00E093C200E0E0E093C500E881E03011F46A
:1041AA00E7E401C0E5E0E093C4004AC0E130A0E0E2
:1041BA00FA07A9F4E0E0E093C800E8E9E093C9004F
:1041CA00E6E0E093CA00E0E0E093CD00E881E03069
:1041DA0011F4E7E401C0E5E0E093CC0031C0E2303D
:1041EA00A0E0FA07A9F4E0E0E093D000E8E9E09360
:1041FA00D100E6E0E093D200E0E0E093D500E88168
:10420A00E03011F4E7E401C0E5E0E093D40018C01F
:10421A00E330A0E0FA07A1F4E0E0E0933001E8E936
:10422A00E0933101E6E0E0933201E0E0E09335010A
:10423A00E881E03011F4E7E401C0E5E0E0933401FD
:10424A0022960895AA93E091C000E072E1F3E88112
:10425A00E093C6000C94A622AA93E091C800E072EB
:10426A00E1F3E881E093CE000C94A622BA93AA93D4
:10427A001A930A9300E010E0F801AA81BB81AE0FFD
:10428A00BF1FEC91E030D1F0EC81F0E0309741F4BF
:10429A00F801AA81BB81AE0FBF1FAC91D3DF0BC05F
:1042AA00E130A0E0FA0739F4F801AA81BB81AE0F28
:1042BA00BF1FAC91D1DF0F5F1F4FDECF198108817D
:1042CA0025960895BA93AA932297E0E0E883E983B2
:1042DA000E94072520E137E2A985AA239AF4E885F6
:1042EA00F9850E94C624E887F987EE81FF81AA85AD
:1042FA00BB85AE0FBF1FEDE2EC93EE81FF813196D5
:10430A00EE83FF8348855985E885F985309731F42E
:10431A00AA85BB85E0E3EC93119630C0002402160F
:10432A00030630F5E885F985E217F307D0F0F901BD
:10433A00DA010E94D7241E2FEE81FF81AA85BB8550
:10434A00AE0FBF1FE12FE05DEC93A12FB0E0F901A2
:10435A000E94CF244E1B5F0BEE81FF813196EE83C4
:10436A00FF83D901EAE0F0E00E94D7249F01D6CF6B
:10437A00EE81FF81AA85BB85AE0FBF1FE0E0EC93FB
:10438A000E940E252C960895EA93EFB7EA931C999A
:10439A0008C01D9B03C0E1E0E51509F001C08A943D
:1043AA0007C01D9903C0E1E0E61509F001C0839436
:1043BA00E0E01C99E1E06E2EE0E01D99E1E05E2E5E
:1043CA00E991EFBFE9911895EA93EFB7EA93E09183
:1043DA000301E870E13038F0E0E0EA1510F4AA24AD
:1043EA0002C0E1E0AE2EE991EFBFE9911895AA93D8
:1043FA001A9310E8113098F0E12FAA81EA23E130EC
:10440A0048F0179A000000000000000000000000B9
:10441A00000002C0179A000017981695EBCF10E813
:10442A00113098F0E12FAB81EA23E13048F0179A76
:10443A00000000000000000000000000000002C0B0
:10444A00179A000017981695EBCF10E8113098F0DC
:10445A00E12FA981EA23E13048F0179A0000000011
:10446A000000000000000000000002C0179A0000CF
:10447A0017981695EBCF188124960895AA93A881C8
:10448A00A63580F4E5E5EA1BA3E0EA02F001E09331
:10449A00610BE881EA02F001E093600BE0E0E0934F
:1044AA005F0B4FC0A881AB3A98F0E881EB5AA3E0C2
:1044BA00EA02F001E093610BE0E0E093600BA8816F
:1044CA00EFEFEA1BA3E0EA02F001E0935F0B39C0C9
:1044DA00E0E0E093610BA881EBEAEA1BA3E0EA02C1
:1044EA00F001E093600BE881E655EA02F001E093FF
:1044FA005F0B27C0EA93E0E0E0939100E1E07E2EB3
:10450A00E9911895AA937724A881EFEFEA1BEF5F48
:10451A00E0939500E0E0E0939400E5E0E0939100F9
:10452A007720F1F30EC0AA937724A881EFEFEA1B54
:10453A00EF5FE0939500E0E0E0939400E5E0E0931C
:10454A00910021960895BA93AA931A93F19AE7E0F3
:10455A00E093DD0AE0E0E093860FE093870FE093B3
:10456A00880FE093890F599A589AE093BC00E0911A
:10457A00B900EC7FE093B900E981FA81A9E9B5E1D4
:10458A000E94D7241E2F183008F018501093B80034
:10459A00E091BC00E078E564E093BC0018812396C2
:1045AA000895AA932497F19B63C0EA85EE0FE093DE
:1045BA007E0FE885F985E0937F0FF093800FE0E0A6
:1045CA00E093DB0AEF81E093810FED81FE81E093B6
:1045DA00820FF093830FE0E0E093DC0AEC81E09332
:1045EA00840FE6E0E093DD0A7894EF81E03081F011
:1045FA00E885F985309709F43BC0EC81E03021F079
:10460A00AD81BE81109709F001C032C0F09A0DC089
:10461A00EC81E03039F1ED81FE81309749F1E0918A
:10462A007E0FE160E0937E0FF098F198E091BC0074
:10463A00EF70E06AE093BC00E0E2F1EA67E070E064
:10464A000E940225F1990EC00E94FD243197604014
:10465A0070400E94022529F4E5E0E093DD0AF19A10
:10466A0007C0F0CFA091DD0AE0E00E94CA2401C091
:10467A00E0E02B9608950A921A92FA926A937A9334
:10468A008A939A93AA93BA93EA93FA93EFB7EA931F
:10469A000E9407251091DC0A0091DB0A3091810FF4
:1046AA002091DD0AE12FA091820FB091830FF0E0F3
:1046BA00EA0FFB1FAF01E091B900E87FE83011F47F
:1046CA0020E002C0E03119F4E0917E0F10C0E83119
:1046DA0011F0E83241F5031798F4E02F0F5FA0912B
:1046EA007F0FB091800FF0E0AE0FBF1FEC91E09307
:1046FA00BB00E091BC00EF70E068E093BC0012C020
:10470A00E091840F1E1768F4E0917E0FE160E09358
:10471A007E0FF098E091BC00EF70E06AE093BC0075
:10472A000DC138C00BC1E03531F4E091BB00DA01AC
:10473A00EC931F5F02C0E03489F4E091840FE150EA
:10474A001E1728F0E091BC00EF70E06804C0E09109
:10475A00BC00EF70E06CE093BC00F0C0E83531F4C7
:10476A00E091BB00DA01EC931F5F02C0E03209F46A
:10477A0002C0E03309F402C0E83469F4203051F48D
:10478A00F09B03C0031728F005C0E091840F1E17A1
:10479A0008F424E0CCC0E83331F422E0E091BC0014
:1047AA00EF70E068C8C0E83611F0E83711F422E08B
:1047BA0005C0E03611F0E037A1F420E010E0F098EF
:1047CA00E091850FE03031F421E0E091BC00EF7018
:1047DA00E06804C0E091BC00EF70E06CE093BC00BC
:1047EA00ADC0E03811F0E03939F5F09B02C021E0A4
:1047FA009EC0E091BB00DA01EC931F5FE091850F48
:10480A001E17C0F4E091860FF091870F309711F4CC
:10481A0026E08DC0A0E0E091860FF091870F099500
:10482A00E03039F0E091BC00EF70E06CE093BC003E
:10483A0085C001C0F09A02C0E83809F402C0E8391C
:10484A0039F4E091BC00EF70E068E093BC0076C0F8
:10485A00E03AB1F4E091BC00EF70E06CE093BC0088
:10486A00F19AE091860FF091870F309739F0A1E025
:10487A00E091860FF091870F099501C026E05EC08E
:10488A00E03B11F422E002C0E83AB1F4E091880F6B
:10489A00F091890F309759F0A0E0E091880FF091DC
:1048AA00890F09953E2FE03011F020E002C026E082
:1048BA003EC000E0F09802C0E83BF9F4F09B02C069
:1048CA0021E035C0E02F0F5FA0917F0FB091800FDC
:1048DA00F0E0AE0FBF1FEC91E093BB00031728F482
:1048EA00E091BC00EF70E06C05C0F09AE091BC006A
:1048FA00EF70E068E093BC0021C0E03C11F0E83CB6
:10490A0099F4E091BC00EF70E06CE093BC00E09198
:10491A00880FF091890F309731F0A1E0E091880F6C
:10492A00F091890F099509C0E03041F423E0E09144
:10493A00BC00EF70E06DE093BC00F19A1093DC0AC2
:10494A000093DB0A2093DD0A3093810F0E940E2523
:10495A002696E991EFBFF991E991B991A9919991B7
:10496A00899179916991F990199009901895109601
:10497A0039F08DEC9AE00197F1F7A8951197C9F7EC
:10498A000895F195E195F0400895EA17E1E009F0FC
:10499A00EE270895FA9FF02DEB9FF00DEA9FE02D88
:1049AA00F10D08950024112490E1AA0FBB1F001CE9
:1049BA00111C0E1A1F0A18F40E0E1F1E01C0A16048
:1049CA009A9599F7FD01D001089504D0EBDF0EF412
:1049DA00D8DF0895E894F7FF02C0D3DF6894B7FFE1
:1049EA0006C0A095B095119600F8039400FA0895B0
:1049FA00E881F9816A817B810895E883F9836A8372
:104A0A007B8308955A934A933A932A931A930A9363
:104A1A0008955D814C813B812A811981088108951D
:00000001FF
